:020000040800F2
:10000000580600209D0100089F160008BD15000835
:100010009D16000885020008051F0008000000006A
:10002000000000000000000000000000C3160008EF
:100030001103000800000000C11600081D17000889
:10004000B7010008B7010008B7010008B7010008B0
:10005000B7010008B7010008B7010008B7010008A0
:10006000B7010008B7010008B7010008B701000890
:10007000B7010008B7010008B7010008B701000880
:1000800089020008B7010008B7010008B70100089D
:10009000B7010008B7010008B7010008B701000860
:1000A000B7010008B7010008B7010008B701000850
:1000B000B7010008B7010008B7010008B701000840
:1000C000B7010008B7010008B7010008B701000830
:1000D000B7010008B7010008F91E0008B7010008C1
:1000E000B7010008B7010008B7010008B701000810
:1000F000B7010008B7010008B7010008B701000800
:10010000B7010008B7010008B7010008B7010008EF
:10011000B7010008B7010008B7010008B7010008DF
:10012000B7010008B7010008B7010008B7010008CF
:10013000B7010008B7010008B7010008B7010008BF
:10014000B7010008B7010008B7010008B7010008AF
:10015000B7010008B7010008B7010008B70100089F
:10016000B7010008B7010008B7010008B70100088F
:10017000B7010008B7010008B7010008000000003F
:10018000B7010008B7010008DFF80CD000F068F8EC
:1001900000480047291F00085806002006488047ED
:1001A00006480047FEE7FEE7FEE7FEE7FEE7FEE75C
:1001B000FEE7FEE7FEE7FEE7C91700088901000831
:1001C0002DE9F05F0546002092469B46884606468C
:1001D000814640241BE0284641464746224600F01F
:1001E0002FF853465A46C01A914110D3114618466B
:1001F000224600F016F82D1A67EB01084F462246FA
:100200000120002100F00DF817EB00094E41201EDF
:10021000A4F10104DFDC484631462A464346BDE8E6
:10022000F09F202A04DB203A00FA02F100207047F8
:100230009140C2F1200320FA03F319439040704724
:10024000202A04DB203A21FA02F00021704721FA2B
:1002500002F3D040C2F12002914008431946704792
:10026000064C074D06E0E06840F0010394E8070003
:1002700098471034AC42F6D3FFF78AFF6C20000891
:100280008C200008FEE70000014800F055B800008F
:10029000F801002001681823CAB2103AB2FBF3F249
:1002A000054B6FF30901032A9B5CC36500D9091D47
:1002B00081650846704700004C20000810B50146D3
:1002C00000208B698A6A4FF0C07453B1B3F5005FA8
:1002D00015D072B1012A0CD0022A0AD0032A09D102
:1002E00004E01AB1012A06D0022A03D1C96AC90161
:1002F00000D5012010BDC96AA142FAD010BD002A64
:10030000F7D0012AF2D0022AF3D0032AF3D010BD8D
:10031000704790F83510022903D0802141650120F3
:100320007047052180F835100068016821F001014F
:1003300001600020704700002DE9F84304464FF0AB
:100340000009CDF8009063484FF41651A56D006880
:10035000B0FBF1F72E6894F85C10082000FA01F168
:1003600031420FD021680A6852070BD50A6822F083
:1003700004020A6094F85C108840A860606D40F048
:100380000100606594F85C104FF0010808FA01F074
:10039000304208D021684969090604D5A860606D1B
:1003A00040F00200606594F85C1004208840304200
:1003B00008D021680968890704D5A860606D40F0FD
:1003C0000400606594F85C1010208840304218D01A
:1003D00021680968090714D5A860206801684903E5
:1003E00004D50068000308D5A16C07E00168C905C1
:1003F00003D4016821F008010160216C09B1204695
:10040000884794F85C1020208840304231D0216821
:100410000968C9062DD5A86094F83500052820681C
:10042000016806D0490347D5006800031DD4616CFC
:100430001CE021F0160101602068416921F0800173
:100440004161206C08B9A06C20B12068016821F0DE
:100450000801016094F85C103F208840A86084F88F
:10046000349084F83580216D1FE0E16B09B120469E
:100470008847606D00282BD0606DC00714D0052020
:1004800084F835002068016821F0010101600098BE
:10049000401C0090B84203D820680068C007F6D11D
:1004A00084F8349084F83580E16C002910D001B0D4
:1004B0002046BDE8F04308470168C905D5D4016866
:1004C00021F01001016084F8349084F83580CCE785
:1004D000BDE8F883240100202DE9F041044600F036
:1004E0004FF906465CB1002584F83450022084F8A8
:1004F00035002068016821F0010101600DE0012054
:10050000BDE8F08100F03CF9801B052805D92020CA
:100510006065032084F83500F2E720680068C007B2
:10052000F0D12268116820480140D4E90103184342
:10053000D4E903363343184363691843A369184366
:10054000E3691843236A18430843616A042903D105
:10055000D4E90B1319430843106020684069666AA8
:1005600020F0070130460E43012704280CD1A06A71
:100570000643E06A40B12046FFF7A0FE20B14020CC
:10058000606584F83570BAE7206846612046FFF759
:1005900081FE94F85C203F2191408160656584F87C
:1005A00035700020ACE700003F8010F070B50446C5
:1005B00000F0E6F80546601C02D0044800780444C8
:1005C00000F0DEF8401BA042FAD370BD18010020F5
:1005D0002DE9F84FDFF87CB100224FF001084FF011
:1005E000030A4FF00F090BF1040E00BF0B6808FA65
:1005F00002F42340A3426ED14D68022D01D0122D8A
:100600000ED1D50800EB850CDCF820505607F70E0C
:1006100009FA07F6B5430E69BE402E43CCF82060B8
:10062000066855000F790AFA05FC07F0030726EA69
:100630000C06AF40374307604E68012E05D0022EEE
:1006400003D0112E01D0122E0ED18668CF6826EA73
:100650000C06AF40374387604668A6430C79C4F365
:100660000014944034434460C6688C6826EA0C0643
:10067000AC403443C4604C68E40065D5364C256812
:1006800045F480452560246822F0030504F4804485
:100690000094324C2E19D6F8084895072F0F09FA06
:1006A00007F5AC432E4DA84201D1002524E02D4D85
:1006B000A84201D101251FE02B4DA84201D10225FE
:1006C0001AE02A4DA84201D1032515E0284DA84281
:1006D00002D1042510E037E0264DA84201D10525BE
:1006E0000AE0254DA84201D1062505E0234DA84288
:1006F00001D1072500E00825BD402543C6F808586C
:10070000DBF800405D464E689C43F60300D51C4371
:100710002C60DEF8004075464E689C43B60300D559
:100720001C432C600B4D08352C684E689C43F60228
:1007300000D51C432C60074D0C352C684E689C433B
:10074000B60200D51C432C60521C102AFFF44EAF99
:10075000BDE8F88F003C01404438024000300140C1
:10076000000002400004024000080240000C024069
:10077000001002400014024000180240001C024019
:1007800001488068704700001801002070B504001F
:1007900004D094F83D00002510B106E0012070BDA2
:1007A00084F83C50204600F075F8242084F83D0081
:1007B0002068016821F00101016000F0F1F933497E
:1007C0002268B0FBF1F15160314A6368934206D967
:1007D0004FF4967359434FF47A73B1FBF3F12368E6
:1007E000491C1962616891420BD84900B0FBF1F2D3
:1007F000C2F30B02042A01D2042019E0B0FBF1F08D
:1008000016E0A3689BB301EBC10202EB0112B0FB3F
:10081000F2F242F48042120530D04BB301EBC10238
:1008200002EB0111B0FBF1F040F4804040F40040D5
:100830002168C861D4E90701084321680860D4E948
:100840000310084321688860D4E905010843216842
:10085000C8602068016841F0010101602564202022
:1008600084F83D00256384F83E50002070BD00E010
:1008700006E001EB4102B0FBF2F2CCE70120D7E742
:1008800001EB4101B0FBF1F0D0E7000040420F0066
:10089000A086010000B500680E4987B0884216D1D5
:1008A000C0200090122001900120029003200390AC
:1008B0000420049069460848FFF78AFE074801684B
:1008C00041F400110160006800F40010059007B0C9
:1008D00000BD0000005400400004024040380240C7
:1008E0000248816802781144816070471801002035
:1008F0000B4810B5016841F400710160016841F4D2
:1009000080610160016841F480710160032000F0A2
:1009100097F8002000F006F800F024F8002010BD41
:10092000003C024070B50D4D04464FF47A712878B2
:10093000B1FBF0F00A490968B1FBF0F000F01BFBD5
:1009400048B9102C07D200222146501E00F058F85A
:1009500000206C6070BD012070BD000018010020F7
:10096000240100201F4808B5016841F4804101605E
:10097000006800F4804000901A48001F016841F0B0
:1009800080510160006800F080500090032000F06A
:1009900057F8002211466FF00B0000F031F80022EA
:1009A00011466FF00A0000F02BF8002211466FF09C
:1009B000090000F025F800221146501F00F020F831
:1009C00000221146101F00F01BF800221146901E55
:1009D00000F016F80022BDE808401146501E00F055
:1009E0000FB800004438024000F01F02012191407E
:1009F0004009800000F1E020C0F8001170470000BD
:100A0000F0B40E4B1B680C46C3F30223C3F1070579
:100A1000042D00D90425191D072901D2002300E067
:100A2000DB1E012606FA05F1491E214099409E4031
:100A3000761E16403143F0BC00F032BE0CED00E0F3
:100A4000064900F0070208684FF6FF03184040EA25
:100A50000220034A10430860704700000CED00E0DC
:100A60000000FA052DE9F0470E46050065D0DFF8D5
:100A70001481D8F80000F7B200F00F00B04207D29E
:100A800088F80070D8F8000000F00F00B04254D190
:100A900028683D4C810712D5400703D5206840F4F3
:100AA000E05020602878000703D5206840F46040BB
:100AB00020602068A96820F0F000084320602878B2
:100AC000C0072DD0304968680839012812D00228A3
:100AD00013D0032811D00968890700292DDA21686D
:100AE00021F0030101432160FFF74AFE814641F2F4
:100AF000883A0EE009688903EFE709688901ECE7A5
:100B0000FFF73EFEA0EB0901514502D90320BDE8E5
:100B1000F0872068696800F00C00B0EB810FEFD11E
:100B2000D8F80010404601F00F01B14207D9077014
:100B3000006800F00F00B04201D00120E7E72878FC
:100B4000400705D52068E96820F4E050084320609C
:100B50002878000706D52068296920F4604040EA1B
:100B6000C100206000F03CF82168084AC1F303117D
:100B7000515CC840064908600020FFF7D3FE002002
:100B8000C5E70000003C024008380240542000083D
:100B90002401002001480068704700002401002063
:100BA0000448054900680968044AC1F38221515C80
:100BB000C840704724010020083802406420000823
:100BC0000448054900680968044AC1F34231515C90
:100BD000C840704724010020083802406420000803
:100BE000154810B5006810F00C02144813D04110DD
:100BF000042A0FD0082A0ED10F4C241F2268236824
:100C000002F03F025B0207D52068C0F38810A0FB0A
:100C1000010106E0084610BD2168C1F38811A1FB5F
:100C200000010023FFF7CCFA2168C1F30141491C00
:100C30004900B0FBF1F010BD083802400024F40078
:100C40002DE9F84F050076D02878DFF8F8B2BE4CD1
:100C5000C00749D0DBF800105846C1F381010129D3
:100C600008D00068C0F3810002280AD1201D006866
:100C7000400206D52068800336D568680028E2D097
:100C800032E06868B0F5803F10D0B0F5A02F206842
:100C900010D020F480302060206820F48020206074
:100CA0006868A0B1FFF76CFD06460CE0206840F4D0
:100CB0008030F4E740F480202060F7E7FFF760FD24
:100CC000801B642873D820688003F7D50CE0FFF7F9
:100CD00057FD064605E000BFFFF752FD801B642864
:100CE000F0D820688003F7D42878DFF86082800786
:100CF0004FF000093ED5DBF80010584611F00C0FFC
:100D000009D00068C0F3810002280BD18D48001F74
:100D10000068400206D42068800715D5E8680128DD
:100D200009D111E0E868B8B10120C8F80000FFF768
:100D300027FD064605E002E1FFF722FD801B0228A1
:100D4000C0D820688007F7D52068296920F0F8000E
:100D500040EAC10020600DE0C8F80090FFF710FDE8
:100D6000064604E0FFF70CFD801B02281FD8206810
:100D70008007F7D42878000722D5724E7448696935
:100D80006C3671B101210160FFF7FAFC074604E0FF
:100D9000FFF7F6FCC01B022809D830688007F7D59A
:100DA0000EE0C0F80090FFF7EBFC074605E083E09B
:100DB000FFF7E6FCC01B02287ED830688007F7D416
:100DC0002878400768D5DFF87CA100270AF1380AA7
:100DD000DAF80000C0000BD4DAF8001041F08051BE
:100DE000CAF80010DAF80000012700F080500090E7
:100DF000584E3068C00510D4306840F480703060C0
:100E0000FFF7BEFC009005E0FFF7BAFC0099401A1E
:100E1000022851D83068C005F6D54A4EA868683611
:100E200001280FD00528306810D020F00100306074
:100E3000306820F004003060A868B8B1FFF7A0FC6B
:100E400000900FE0306840F00100F4E740F004004B
:100E50003060F7E7FFF794FC0099411A41F28830BF
:100E6000814264D830688007F4D50EE0FFF788FC33
:100E7000009007E0FFF784FC0099411A41F28830A6
:100E8000814254D830688007F4D42FB1DAF80010CA
:100E900021F08051CAF80010A869C0B3DBF8001037
:100EA000C1F3810102294AD00228484607D0C8F878
:100EB0006000FFF765FC00E039E005463AE0474690
:100EC000C8F86000FFF75CFC064604E0FFF758FC3A
:100ED000801B02282BD820688001F7D4D5E90701B0
:100EE0000843A96A1C4A490802EB01416A6A41EABF
:100EF0008211084395F82C1040EA01611148001F47
:100F0000016001203866FFF73BFC054605E014E070
:100F1000FFF736FC401B022809D820688001F7D56E
:100F20000BE000BFFFF72CFC401B022802D9032076
:100F3000BDE8F88F20688001F4D40020F8E7012094
:100F4000F6E700000838024000380240000047423F
:100F5000800E4742007000400000FFFF4FF0E0218C
:100F60000428086903D020F004000861704740F0AD
:100F70000400FAE7704710B5401EB0F1807F01D33E
:100F8000012010BD4FF0E02460610F21601700F0D8
:100F900087FB0020A06107202061002010BD10B554
:100FA000FFF7E8FF10BD30B590F83820012A20D0B7
:100FB000012280F83820022380F8393003685C6809
:100FC00024F070045C6003685C680D682C435C600E
:100FD00003689C6824F080049C6003689C684968EE
:100FE0000C439C6080F83920002180F838100846B6
:100FF00030BD022030BD10B5040003D094F8390094
:1010000010B107E0012010BD002084F83800204610
:1010100000F00CF8022084F83900211D206800F04F
:10102000FDFB012084F83900002010BD08B50068E0
:101030000649884208D10648016841F00201016072
:10104000006800F00200009008BD000000040040AD
:101050004038024070B5044690F83800012817D097
:10106000012584F83850022084F83900206882680D
:1010700022F0770222F47F4282600868502837D03D
:101080000DDC202859D005DC88B3102841D151E06F
:10109000022070BD302853D040283AD13FE060286C
:1010A0002ED070280BD0B0F5805F03D0B0F5005F74
:1010B0002FD110E02068816821F0070115E0CB688E
:1010C000D1E90121206800F014FC2168886840F013
:1010D000770088601DE0CB68D1E90121206800F02D
:1010E00008FC2068816841F48041816011E01EE0C5
:1010F000CA684968206800F0C5FC5021206806E0F5
:10110000CA684968206800F0CEFC6021206800F0C1
:10111000FAFB84F83950002084F8380070BDCA68A2
:101120004968206800F0AEFC40212068EFE700210C
:101130002068ECE710212068E9E720212068E6E735
:1011400030212068E3E7000070B500680D4986B0E3
:10115000884214D1C020022400268DE851000325C6
:10116000CDE9035469460848FFF732FACDE9005447
:101170000296CDE9035469460448FFF729FA06B000
:1011800070BD000000040040000002400004024066
:1011900070B5044690F838000D4601280DD00126A0
:1011A00084F83860022084F8390042B1042A18D04B
:1011B000082A2AD00C2A4DD139E0022070BD2068BF
:1011C00000F0AAFB2068816941F008018161206874
:1011D000816921F004018161206881692A691143D4
:1011E00011E0206800F0C4FB2068816941F40061CF
:1011F00081612068816921F4806181612068816951
:101200002A6941EA0221816124E0206800F0E2FBC2
:101210002068C16941F00801C1612068C16921F0FD
:101220000401C1612068C1692A69114311E0206885
:1012300000F000FC2068C16941F40061C1612068D0
:10124000C16921F48061C1612068C1692A6941EAEC
:101250000221C16184F83960002084F8380070BD33
:1012600010B5040003D094F8390010B107E0012054
:1012700010BD002084F83800204600F00CF8022051
:1012800084F83900211D206800F0C8FA012084F894
:101290003900002010BD704710B5044600680122D7
:1012A00000F01CFB08492068884202D007498842A8
:1012B00003D1416C41F4004141642068016841F070
:1012C00001010160002010BD000001400004014048
:1012D0007047000070B5026804461068D168536911
:1012E00010F00F0F50D003F0010501F49076354354
:1012F0005DD0C20705D0CA0503D5E26B42F00102FA
:10130000E263420705D5DA0703D0E26B42F002023E
:10131000E263820705D5DA0703D0E26B42F00402EC
:10132000E263020705D5DA0703D0E26B42F0080258
:10133000E263E26B002A33D0800604D5880602D52A
:10134000204600F0D8FB20684069E16BC0F38010B4
:10135000090700D428B3204600F0BFFB206841698C
:1013600049061AD5416921F040014161606BA0B185
:101370001B490165606BFEF7CCFF002810D0606B45
:10138000016DBDE870400847830610D58B060ED569
:101390002046BDE8704000F0AEBB2046FFF798FF46
:1013A00070BD2046FFF794FF0020E06370BD030688
:1013B00006D50B0604D52046BDE8704000F038BDC8
:1013C0004006F3D54806F1D5D168204621F040010A
:1013D000D160202184F8391000F0EFF870BD0000D2
:1013E000CB1A000870B5040004D094F83900002529
:1013F00010B106E0012070BD84F83850204600F09E
:1014000023F8242084F839002068C16821F40051B1
:10141000C160204600F0B6FB2068016921F49041CC
:1014200001612068416921F02A0141612068C16899
:1014300041F40051C160E563202084F8390084F84C
:101440003A00002070BD000070B5064600682049D3
:1014500086B0884239D11F480025016841F4003127
:1014600001600068694600F4003005900C2000908F
:101470000220019001200290032003900720049095
:101480001548FFF7A5F8164C144820604FF000608F
:10149000C4E901054014C4E9035080106561C4E942
:1014A0000650256220466562FFF716F818B1F6214E
:1014B0000CA000F028FD7463002211462620A663CC
:1014C000FFF79EFA2620FFF78FFA06B070BD0000E6
:1014D0000044004040380240000002408860024062
:1014E000F80100202E2E2F5372632F73746D333248
:1014F000663478785F68616C5F6D73702E6300008E
:101500002DE9F843044690F83A00994616460D46F0
:1015100020284FD195B18EB194F83800012849D0D8
:10152000012084F838000027E763222084F83A007D
:10153000FFF726F9A6858046E68531E00120BDE863
:10154000F883E08D401EE085A0684346B0F5805FDB
:101550004FF000024FF020012046CDF8009004D05B
:1015600000F097FC98B10320E9E700F092FC002816
:10157000F9D1206900282068406803D0C1B225F85D
:10158000011B0DE0C0F3080125F8021B08E02069EB
:1015900000282068406801D000F07F0005F8010BAA
:1015A000E08D0028CDD1202084F83A0084F83870EE
:1015B0000020C4E70220C2E770477047FEE7000042
:1015C0000B4810B5094901600A49416000214FF4F8
:1015D00080428160C0E9031241618161C1610162A1
:1015E000FFF7D4F8002800D0FEE710BD00540040FB
:1015F00028010020801A060010B527488EB0254922
:10160000016053210024C0E901144FF47A61C0E95C
:101610000314FFF7F0FC00B1FEE74FF48050079091
:1016200007A91D48FFF716FD00B1FEE71A48FFF7AE
:1016300017FE00B1FEE70B940BA917480C94FFF7B7
:10164000B2FC00B1FEE76020CDE900040294002264
:10165000694611480494FFF79BFD00B1FEE70422A0
:1016600069460D48FFF794FD00B1FEE70822694680
:101670000948FFF78DFD00B1FEE70C2269460648D8
:10168000FFF786FD00B1FEE70348FFF75DFD0EB0F2
:1016900010BD0000000400407C010020FEE7704700
:1016A0000907090E002806DA00F00F0000F1E0201B
:1016B00080F8141D704700F1E02080F80014704796
:1016C000704770472DE9F0410E4607461C46154607
:1016D00000210F48FFF7E0FD04210D48FFF7DCFD76
:1016E00008210B48FFF7D8FD0C210948FFF7D4FD6E
:1016F00008480760001D0660001D0560001D0460AD
:10170000054844818581C6810782BDE8F0810000DB
:101710007C010020340800400000002010B5FFF7D5
:10172000DFF8BDE81040FFF73ABC000030B52448B0
:1017300093B00025016841F080510160006800F01D
:10174000805011901F48016841F480410160006899
:10175000022400F4804011900120009000040190C8
:101760008001CDE90640082008904FF4A870CDE92B
:10177000090404200B906846FFF762FA00B1FEE707
:101780000CA90F2081E831004FF4A0500F90109069
:1017900005210CA8FFF766F900B1FEE7FFF7FAF99B
:1017A0004FF47A71B0FBF1F0FFF7E5FB0420FFF78F
:1017B000D5FB00221146501EFFF722F913B030BDB1
:1017C00040380240007000401048016841F4700148
:1017D00001600F48016841F0010101600C4A0021DD
:1017E0000832116002680B4B1A400260031D0A4A5E
:1017F0001A60026822F48022026005480C30016001
:1018000002495806803908607047000088ED00E002
:1018100000380240FFFFF6FE10300024F0B50268E9
:10182000234B244D244E254F254C4FF0804C98429D
:1018300009D0604507D0A84205D0B04203D0B842D5
:1018400001D0A04204D122F0700E4A6842EA0E0292
:1018500098421BD0604519D0A84217D0B04215D08D
:10186000B84213D0A04211D0164DA8420ED0164D4A
:10187000A8420BD0154DA84208D0154DA84205D05E
:10188000144DA84202D0144DA84203D122F4407551
:10189000CA682A4302608A68C2620A688262984201
:1018A00001D0A04201D10969016301214161F0BD6C
:1018B000000001400004004000080040000C00400F
:1018C0000004014000400140004401400048014044
:1018D00000180040001C00400020004010B501230B
:1018E000046A8B409C430462036A8A401343036288
:1018F00010BD10B5846842EA032224F47F440A43F1
:101900002243826010BD826822F070020A4342F0D6
:10191000070181607047000030B5026A22F00102C1
:101920000262026A436884690D6824F073042543E7
:1019300022F002048A6822430B4CA04202D00B4CD6
:10194000A0420BD122F00804CA6823F4407322435A
:101950004C6922F004021C438B6923434360856178
:1019600049684163026230BD00000140000401404B
:1019700030B5026A22F010020262026A436884698A
:101980000D6824F4E64444EA05248D6822F0200220
:1019900042EA05120D4DA84202D00D4DA8420ED1CB
:1019A000CD6822F0800242EA05124D6923F44063BB
:1019B00043EA85038D6922F0400243EA85034360D0
:1019C000846149688163026230BD0000000001400B
:1019D0000004014030B5026A22F480720262036A98
:1019E0004268C46923F4007324F073050C682C4327
:1019F0008D6843EA05230D4DA84202D00C4DA84244
:101A00000ED1CD6823F4006343EA05234D6922F427
:101A1000405242EA05128D6923F4806342EA0512BE
:101A20004260C4614968C163036230BD0000014087
:101A30000004014030B5026A22F480520262046A56
:101A40004268C3690D6823F4E64343EA05238D68C1
:101A500024F4005444EA0534084DA84202D0084D4D
:101A6000A84204D14D6922F4804242EA85124260C4
:101A7000C36149680164046230BD00000000014098
:101A80000004014010B5036A046A24F001040462F2
:101A9000846924F0F00444EA021423F00A020A43A1
:101AA0008461026210BD10B5036A23F01003036263
:101AB0008369046A23F4704343EA023224F0A003EA
:101AC00043EA01118261016210BD10B5806B0021F3
:101AD000C185C184FFF7FCFB10BD0168CA6822F410
:101AE0009072CA6001684A6922F001024A612021AD
:101AF00080F83A10704710B590F83A10222901D0BA
:101B0000022010BD8168B1F5805F11D00169002904
:101B100001681FD0496801F07F03816A4A1C826214
:101B20000B70C18D491E0904090CC18518D026E02F
:101B30000269816A002A0268526805D0D2B20A801E
:101B4000816A491C8162ECE7C2F308020A80816A5B
:101B5000891CF7E74A68816A4B1C83620A70E0E7D8
:101B60000168CA6822F49072CA6001684A6922F06A
:101B700001024A61202180F83A10FFF71DFD002084
:101B800010BD00002DE9F04104460068016921F410
:101B90004052E168114301612168C86849F20C6252
:101BA00090432369A268E5691A4363692B431A438A
:101BB0000243CA602168486920F44072A06910435A
:101BC0004861E1696425B1F5004F9748974A21685B
:101BD0004FF032083FD0914201D081427CD1FEF7D4
:101BE000EFFF00EBC00101EB001061688900B0FB62
:101BF000F1F6FEF7E5FF00EBC00101EB00106168B4
:101C00008900B0FBF1F0B0FBF5F06FF0180148432C
:101C100006EB800108EB0110B0FBF5F000F0F006D8
:101C2000FEF7CEFF00EBC00101EB001061688900F8
:101C3000B0FBF1F0B0FBF5F006EB0016FEF7C0FFCD
:101C400000EBC00101EB001061688900B0FBF1F707
:101C5000FEF7B6FFD2E0914201D081423DD1FEF7BE
:101C6000AFFF00EBC00101EB001061684900B0FB61
:101C7000F1F0B0FBF5F00601FEF7A2FF00EBC001AA
:101C800001EB001061684900B0FBF1F7FEF798FF27
:101C900000EBC00101EB001061684900B0FBF1F0FE
:101CA000B0FBF5F06FF01801484307EB800108EB3B
:101CB000C100B0FBF5F000F0F80006EB4006FEF7BF
:101CC0007FFF00EBC00101EB001061684900B0FB31
:101CD000F1F7FEF775FF3CE055E0FEF761FF00EB22
:101CE000C00101EB001061684900B0FBF1F0B0FBEE
:101CF000F5F00601FEF754FF00EBC00101EB001008
:101D000061684900B0FBF1F7FEF74AFF00EBC00144
:101D100001EB001061684900B0FBF1F0B0FBF5F099
:101D20006FF01801484307EB800108EBC100B0FBDE
:101D3000F5F000F0F80006EB4006FEF731FF00EB8F
:101D4000C00101EB001061684900B0FBF1F7FEF73C
:101D500027FF00EBC00101EB001061684900B0FBF8
:101D6000F1F0B0FBF5F06FF01801484307EB80018C
:101D700008EBC100B0FBF5F000F00700216830442B
:101D80008860BDE8F081FEF70BFF00EBC00101EBBE
:101D9000001061688900B0FBF1F6FEF701FF00EB6F
:101DA000C00101EB001061688900B0FBF1F0B0FBED
:101DB000F5F06FF01801484306EB800108EB0110C5
:101DC000B0FBF5F000F0F006FEF7EAFE00EBC00114
:101DD00001EB001061688900B0FBF1F0B0FBF5F099
:101DE00006EB0016FEF7DCFE00EBC00101EB001075
:101DF00061688900B0FBF1F7FEF7D2FE00EBC0018D
:101E000001EB001061688900B0FBF1F0B0FBF5F068
:101E10006FF01801484307EB800108EB0110B0FB9D
:101E2000F5F000F00F00A9E7001401400010014098
:101E300090F83910212901D0022070478168B1F54E
:101E4000805F016A0BD04A1C026202680978516007
:101E5000C18C491E0904090CC1840ED017E0098801
:101E60000268C1F30801516001690029016A02D0CA
:101E7000491C0162ECE7891CFBE70168CA6822F093
:101E80008002CA600068C16841F04001C160002062
:101E900070472DE9F041984617460E460446069DC8
:101EA0001DE0681C1BD02DB1FEF76AFCA0EB0800FA
:101EB000A84214D92068C16821F4D071C16020689B
:101EC000416921F001014161202084F8390084F842
:101ED0003A00002084F838000320BDE8F081206833
:101EE000006836EA000004D00020B842D9D00020B3
:101EF000F3E70120F9E700000148FFF7EBB9000024
:101F0000B8010020FEE7FEE702E008C8121F08C182
:101F1000002AFAD170477047002001E001C1121F6A
:101F2000002AFBD17047000008B5FEF7E1FCFFF77F
:101F3000FDFB42480024016841F080010160016816
:101F400001F080010091016841F001010160016828
:101F500001F001010091016841F002010160016896
:101F600001F002010091016841F400110160006874
:101F7000002200F40010009011461020FEF740FDF2
:101F80001020FEF731FDFFF737FBFFF719FB2D4857
:101F90002B4901604FF4E131C0E901140C21C46008
:101FA000C0E904418461C461FFF71CFA00B1FEE797
:101FB0004FF47A7003461A461146FFF783FB40F64A
:101FC000B830FEF7F3FA204C04F12005002301227B
:101FD0001D491C48FFF794FA2078412802D0422876
:101FE0000DD019E06189608801446181A1890144B3
:101FF000A181E1890144E181218A08440BE06189E2
:102000006088091A6181A189091AA181E189091AE7
:10201000E181218A081A20822878143800EE100AFB
:10202000B8EEC00A84ED050A6878143800EE100A8C
:10203000B8EEC00A84ED060AC8E700003038024056
:1020400000440040B80100200000002000061016E7
:10205000000610160000000000000000010203044A
:102060000607080900000000010203048C20000894
:102070000000002028010000081F0008B42100080B
:102080002801002030050000181F0008000064002F
:10209000900190019001000000000000000000008D
:1020A0000000000000000000000000000000000030
:1020B000000000000000000000001040B81E85EB8A
:1020C00051B89E3F000000000000324000000000B8
:1020D00000001040B81E85EB51B89E3F0000000084
:1020E0000000324000000000000010400AD7A3703A
:1020F0003D0AA73F000000000000000000000000B3
:1021000000000000000000000000000000000000CF
:1021100000000000000000000000000000000000BF
:1021200000000000000000000000000000000000AF
:10213000000000000000000000000000000000009F
:10214000000000000000000000000000000000008F
:10215000000000000000000000000000000000007F
:10216000000000000000000000000000000000006F
:10217000000000000000000000000000000000005F
:10218000000000000000000000000000000000004F
:10219000000000000000000000000000000000003F
:1021A000000000000100000010000000000000001E
:0421B0000024F40013
:040000050800018965
:00000001FF
